{
  "_format": "hh-sol-artifact-1",
  "contractName": "BikeChain",
  "sourceName": "contracts/BikeChain.sol",
  "abi": [
    {
      "inputs": [],
      "stateMutability": "nonpayable",
      "type": "constructor"
    },
    {
      "inputs": [
        {
          "internalType": "address payable",
          "name": "walletAddress",
          "type": "address"
        },
        {
          "internalType": "string",
          "name": "firstName",
          "type": "string"
        },
        {
          "internalType": "string",
          "name": "lastName",
          "type": "string"
        },
        {
          "internalType": "bool",
          "name": "canRent",
          "type": "bool"
        },
        {
          "internalType": "bool",
          "name": "active",
          "type": "bool"
        },
        {
          "internalType": "uint256",
          "name": "balance",
          "type": "uint256"
        },
        {
          "internalType": "uint256",
          "name": "due",
          "type": "uint256"
        },
        {
          "internalType": "uint256",
          "name": "start",
          "type": "uint256"
        },
        {
          "internalType": "uint256",
          "name": "end",
          "type": "uint256"
        }
      ],
      "name": "addRenter",
      "outputs": [],
      "stateMutability": "nonpayable",
      "type": "function"
    },
    {
      "inputs": [],
      "name": "balanceOf",
      "outputs": [
        {
          "internalType": "uint256",
          "name": "",
          "type": "uint256"
        }
      ],
      "stateMutability": "view",
      "type": "function"
    },
    {
      "inputs": [
        {
          "internalType": "address",
          "name": "walletAddress",
          "type": "address"
        }
      ],
      "name": "balanceOfRenter",
      "outputs": [
        {
          "internalType": "uint256",
          "name": "",
          "type": "uint256"
        }
      ],
      "stateMutability": "view",
      "type": "function"
    },
    {
      "inputs": [
        {
          "internalType": "address",
          "name": "walletAddress",
          "type": "address"
        }
      ],
      "name": "canRentBike",
      "outputs": [
        {
          "internalType": "bool",
          "name": "",
          "type": "bool"
        }
      ],
      "stateMutability": "view",
      "type": "function"
    },
    {
      "inputs": [
        {
          "internalType": "address",
          "name": "walletAddress",
          "type": "address"
        }
      ],
      "name": "checkIn",
      "outputs": [],
      "stateMutability": "nonpayable",
      "type": "function"
    },
    {
      "inputs": [
        {
          "internalType": "address",
          "name": "walletAddress",
          "type": "address"
        }
      ],
      "name": "checkOut",
      "outputs": [],
      "stateMutability": "nonpayable",
      "type": "function"
    },
    {
      "inputs": [
        {
          "internalType": "address",
          "name": "walletAddress",
          "type": "address"
        }
      ],
      "name": "deposit",
      "outputs": [],
      "stateMutability": "payable",
      "type": "function"
    },
    {
      "inputs": [
        {
          "internalType": "address",
          "name": "walletAddress",
          "type": "address"
        }
      ],
      "name": "getDue",
      "outputs": [
        {
          "internalType": "uint256",
          "name": "",
          "type": "uint256"
        }
      ],
      "stateMutability": "view",
      "type": "function"
    },
    {
      "inputs": [],
      "name": "getOwnerBalance",
      "outputs": [
        {
          "internalType": "uint256",
          "name": "",
          "type": "uint256"
        }
      ],
      "stateMutability": "view",
      "type": "function"
    },
    {
      "inputs": [
        {
          "internalType": "address",
          "name": "walletAddress",
          "type": "address"
        }
      ],
      "name": "getRenter",
      "outputs": [
        {
          "internalType": "string",
          "name": "firstName",
          "type": "string"
        },
        {
          "internalType": "string",
          "name": "lastName",
          "type": "string"
        },
        {
          "internalType": "bool",
          "name": "canRent",
          "type": "bool"
        },
        {
          "internalType": "bool",
          "name": "active",
          "type": "bool"
        }
      ],
      "stateMutability": "view",
      "type": "function"
    },
    {
      "inputs": [
        {
          "internalType": "address",
          "name": "walletAddress",
          "type": "address"
        }
      ],
      "name": "getTotalDuration",
      "outputs": [
        {
          "internalType": "uint256",
          "name": "",
          "type": "uint256"
        }
      ],
      "stateMutability": "view",
      "type": "function"
    },
    {
      "inputs": [
        {
          "internalType": "address",
          "name": "walletAddress",
          "type": "address"
        },
        {
          "internalType": "uint256",
          "name": "amount",
          "type": "uint256"
        }
      ],
      "name": "makePayment",
      "outputs": [],
      "stateMutability": "nonpayable",
      "type": "function"
    },
    {
      "inputs": [
        {
          "internalType": "address",
          "name": "walletAddress",
          "type": "address"
        }
      ],
      "name": "renterExists",
      "outputs": [
        {
          "internalType": "bool",
          "name": "",
          "type": "bool"
        }
      ],
      "stateMutability": "view",
      "type": "function"
    },
    {
      "inputs": [
        {
          "internalType": "address",
          "name": "",
          "type": "address"
        }
      ],
      "name": "renters",
      "outputs": [
        {
          "internalType": "address payable",
          "name": "walletAddress",
          "type": "address"
        },
        {
          "internalType": "string",
          "name": "firstName",
          "type": "string"
        },
        {
          "internalType": "string",
          "name": "lastName",
          "type": "string"
        },
        {
          "internalType": "bool",
          "name": "canRent",
          "type": "bool"
        },
        {
          "internalType": "bool",
          "name": "active",
          "type": "bool"
        },
        {
          "internalType": "uint256",
          "name": "balance",
          "type": "uint256"
        },
        {
          "internalType": "uint256",
          "name": "due",
          "type": "uint256"
        },
        {
          "internalType": "uint256",
          "name": "start",
          "type": "uint256"
        },
        {
          "internalType": "uint256",
          "name": "end",
          "type": "uint256"
        }
      ],
      "stateMutability": "view",
      "type": "function"
    },
    {
      "inputs": [],
      "name": "withdrawOwnerBalance",
      "outputs": [],
      "stateMutability": "payable",
      "type": "function"
    }
  ],
  "bytecode": "0x608060405234801561001057600080fd5b50336000806101000a81548173ffffffffffffffffffffffffffffffffffffffff021916908373ffffffffffffffffffffffffffffffffffffffff160217905550612459806100606000396000f3fe6080604052600436106100e85760003560e01c80638d23caa01161008a578063d9a59e3311610059578063d9a59e3314610318578063f340fa0114610341578063f98cf07c1461035d578063f9d8241c14610386576100e8565b80638d23caa01461026b578063941b80ac14610294578063aad1b6171461029e578063c6d2a846146102db576100e8565b80635e649727116100c65780635e64972714610192578063644a1370146101bb5780636a4b27f414610200578063722713f714610240576100e8565b80630b88adbe146100ed57806341ba6e891461012a578063590791f214610167575b600080fd5b3480156100f957600080fd5b50610114600480360381019061010f9190611a7d565b6103c3565b6040516101219190611f31565b60405180910390f35b34801561013657600080fd5b50610151600480360381019061014c9190611a7d565b61048c565b60405161015e919061207f565b60405180910390f35b34801561017357600080fd5b5061017c61064d565b604051610189919061207f565b60405180910390f35b34801561019e57600080fd5b506101b960048036038101906101b49190611aa6565b6106e6565b005b3480156101c757600080fd5b506101e260048036038101906101dd9190611a7d565b610877565b6040516101f799989796959493929190611e96565b60405180910390f35b34801561020c57600080fd5b5061022760048036038101906102229190611a7d565b610a0f565b6040516102379493929190611f4c565b60405180910390f35b34801561024c57600080fd5b50610255610cca565b604051610262919061207f565b60405180910390f35b34801561027757600080fd5b50610292600480360381019061028d9190611a7d565b610d61565b005b61029c610fec565b005b3480156102aa57600080fd5b506102c560048036038101906102c09190611a7d565b611057565b6040516102d2919061207f565b60405180910390f35b3480156102e757600080fd5b5061030260048036038101906102fd9190611a7d565b611113565b60405161030f919061207f565b60405180910390f35b34801561032457600080fd5b5061033f600480360381019061033a9190611a7d565b6111cf565b005b61035b60048036038101906103569190611a7d565b611383565b005b34801561036957600080fd5b50610384600480360381019061037f9190611b9c565b61144f565b005b34801561039257600080fd5b506103ad60048036038101906103a89190611a7d565b611771565b6040516103ba9190611f31565b60405180910390f35b6000818073ffffffffffffffffffffffffffffffffffffffff163373ffffffffffffffffffffffffffffffffffffffff1614610434576040517f08c379a000000000000000000000000000000000000000000000000000000000815260040161042b9061205f565b60405180910390fd5b600260008473ffffffffffffffffffffffffffffffffffffffff1673ffffffffffffffffffffffffffffffffffffffff16815260200190815260200160002060030160009054906101000a900460ff16915050919050565b6000818073ffffffffffffffffffffffffffffffffffffffff163373ffffffffffffffffffffffffffffffffffffffff16146104fd576040517f08c379a00000000000000000000000000000000000000000000000000000000081526004016104f49061205f565b60405180910390fd5b6000600260008573ffffffffffffffffffffffffffffffffffffffff1673ffffffffffffffffffffffffffffffffffffffff16815260200190815260200160002060060154148061059057506000600260008573ffffffffffffffffffffffffffffffffffffffff1673ffffffffffffffffffffffffffffffffffffffff16815260200190815260200160002060070154145b1561059e5760009150610647565b600061062e600260008673ffffffffffffffffffffffffffffffffffffffff1673ffffffffffffffffffffffffffffffffffffffff16815260200190815260200160002060060154600260008773ffffffffffffffffffffffffffffffffffffffff1673ffffffffffffffffffffffffffffffffffffffff1681526020019081526020016000206007015461188c565b90506000603c8261063f919061216d565b905080935050505b50919050565b60008060009054906101000a900473ffffffffffffffffffffffffffffffffffffffff1673ffffffffffffffffffffffffffffffffffffffff163373ffffffffffffffffffffffffffffffffffffffff16146106de576040517f08c379a00000000000000000000000000000000000000000000000000000000081526004016106d59061201f565b60405180910390fd5b600154905090565b6040518061012001604052808a73ffffffffffffffffffffffffffffffffffffffff1681526020018981526020018881526020018715158152602001861515815260200185815260200184815260200183815260200182815250600260008b73ffffffffffffffffffffffffffffffffffffffff1673ffffffffffffffffffffffffffffffffffffffff16815260200190815260200160002060008201518160000160006101000a81548173ffffffffffffffffffffffffffffffffffffffff021916908373ffffffffffffffffffffffffffffffffffffffff16021790555060208201518160010190805190602001906107e292919061191e565b5060408201518160020190805190602001906107ff92919061191e565b5060608201518160030160006101000a81548160ff02191690831515021790555060808201518160030160016101000a81548160ff02191690831515021790555060a0820151816004015560c0820151816005015560e082015181600601556101008201518160070155905050505050505050505050565b60026020528060005260406000206000915090508060000160009054906101000a900473ffffffffffffffffffffffffffffffffffffffff16908060010180546108c0906122c8565b80601f01602080910402602001604051908101604052809291908181526020018280546108ec906122c8565b80156109395780601f1061090e57610100808354040283529160200191610939565b820191906000526020600020905b81548152906001019060200180831161091c57829003601f168201915b50505050509080600201805461094e906122c8565b80601f016020809104026020016040519081016040528092919081815260200182805461097a906122c8565b80156109c75780601f1061099c576101008083540402835291602001916109c7565b820191906000526020600020905b8154815290600101906020018083116109aa57829003601f168201915b5050505050908060030160009054906101000a900460ff16908060030160019054906101000a900460ff16908060040154908060050154908060060154908060070154905089565b606080600080848073ffffffffffffffffffffffffffffffffffffffff163373ffffffffffffffffffffffffffffffffffffffff1614610a84576040517f08c379a0000000000000000000000000000000000000000000000000000000008152600401610a7b9061205f565b60405180910390fd5b600260008773ffffffffffffffffffffffffffffffffffffffff1673ffffffffffffffffffffffffffffffffffffffff1681526020019081526020016000206001018054610ad1906122c8565b80601f0160208091040260200160405190810160405280929190818152602001828054610afd906122c8565b8015610b4a5780601f10610b1f57610100808354040283529160200191610b4a565b820191906000526020600020905b815481529060010190602001808311610b2d57829003601f168201915b50505050509450600260008773ffffffffffffffffffffffffffffffffffffffff1673ffffffffffffffffffffffffffffffffffffffff1681526020019081526020016000206002018054610b9e906122c8565b80601f0160208091040260200160405190810160405280929190818152602001828054610bca906122c8565b8015610c175780601f10610bec57610100808354040283529160200191610c17565b820191906000526020600020905b815481529060010190602001808311610bfa57829003601f168201915b50505050509350600260008773ffffffffffffffffffffffffffffffffffffffff1673ffffffffffffffffffffffffffffffffffffffff16815260200190815260200160002060030160009054906101000a900460ff169250600260008773ffffffffffffffffffffffffffffffffffffffff1673ffffffffffffffffffffffffffffffffffffffff16815260200190815260200160002060030160019054906101000a900460ff169150509193509193565b60008060009054906101000a900473ffffffffffffffffffffffffffffffffffffffff1673ffffffffffffffffffffffffffffffffffffffff163373ffffffffffffffffffffffffffffffffffffffff1614610d5b576040517f08c379a0000000000000000000000000000000000000000000000000000000008152600401610d529061201f565b60405180910390fd5b47905090565b808073ffffffffffffffffffffffffffffffffffffffff163373ffffffffffffffffffffffffffffffffffffffff1614610dd0576040517f08c379a0000000000000000000000000000000000000000000000000000000008152600401610dc79061205f565b60405180910390fd5b6000600260008473ffffffffffffffffffffffffffffffffffffffff1673ffffffffffffffffffffffffffffffffffffffff1681526020019081526020016000206005015414610e55576040517f08c379a0000000000000000000000000000000000000000000000000000000008152600401610e4c90611fff565b60405180910390fd5b60011515600260008473ffffffffffffffffffffffffffffffffffffffff1673ffffffffffffffffffffffffffffffffffffffff16815260200190815260200160002060030160009054906101000a900460ff16151514610eeb576040517f08c379a0000000000000000000000000000000000000000000000000000000008152600401610ee290611fdf565b60405180910390fd5b6001600260008473ffffffffffffffffffffffffffffffffffffffff1673ffffffffffffffffffffffffffffffffffffffff16815260200190815260200160002060030160016101000a81548160ff02191690831515021790555042600260008473ffffffffffffffffffffffffffffffffffffffff1673ffffffffffffffffffffffffffffffffffffffff168152602001908152602001600020600601819055506000600260008473ffffffffffffffffffffffffffffffffffffffff1673ffffffffffffffffffffffffffffffffffffffff16815260200190815260200160002060030160006101000a81548160ff0219169083151502179055505050565b60008054906101000a900473ffffffffffffffffffffffffffffffffffffffff1673ffffffffffffffffffffffffffffffffffffffff166108fc6001549081150290604051600060405180830381858888f19350505050158015611054573d6000803e3d6000fd5b50565b6000818073ffffffffffffffffffffffffffffffffffffffff163373ffffffffffffffffffffffffffffffffffffffff16146110c8576040517f08c379a00000000000000000000000000000000000000000000000000000000081526004016110bf9061205f565b60405180910390fd5b600260008473ffffffffffffffffffffffffffffffffffffffff1673ffffffffffffffffffffffffffffffffffffffff16815260200190815260200160002060040154915050919050565b6000818073ffffffffffffffffffffffffffffffffffffffff163373ffffffffffffffffffffffffffffffffffffffff1614611184576040517f08c379a000000000000000000000000000000000000000000000000000000000815260040161117b9061205f565b60405180910390fd5b600260008473ffffffffffffffffffffffffffffffffffffffff1673ffffffffffffffffffffffffffffffffffffffff16815260200190815260200160002060050154915050919050565b808073ffffffffffffffffffffffffffffffffffffffff163373ffffffffffffffffffffffffffffffffffffffff161461123e576040517f08c379a00000000000000000000000000000000000000000000000000000000081526004016112359061205f565b60405180910390fd5b60011515600260008473ffffffffffffffffffffffffffffffffffffffff1673ffffffffffffffffffffffffffffffffffffffff16815260200190815260200160002060030160019054906101000a900460ff161515146112d4576040517f08c379a00000000000000000000000000000000000000000000000000000000081526004016112cb90611f9f565b60405180910390fd5b6000600260008473ffffffffffffffffffffffffffffffffffffffff1673ffffffffffffffffffffffffffffffffffffffff16815260200190815260200160002060030160016101000a81548160ff02191690831515021790555042600260008473ffffffffffffffffffffffffffffffffffffffff1673ffffffffffffffffffffffffffffffffffffffff1681526020019081526020016000206007018190555061137f826118a2565b5050565b808073ffffffffffffffffffffffffffffffffffffffff163373ffffffffffffffffffffffffffffffffffffffff16146113f2576040517f08c379a00000000000000000000000000000000000000000000000000000000081526004016113e99061205f565b60405180910390fd5b34600260008473ffffffffffffffffffffffffffffffffffffffff1673ffffffffffffffffffffffffffffffffffffffff16815260200190815260200160002060040160008282546114449190612117565b925050819055505050565b818073ffffffffffffffffffffffffffffffffffffffff163373ffffffffffffffffffffffffffffffffffffffff16146114be576040517f08c379a00000000000000000000000000000000000000000000000000000000081526004016114b59061205f565b60405180910390fd5b6000600260008573ffffffffffffffffffffffffffffffffffffffff1673ffffffffffffffffffffffffffffffffffffffff1681526020019081526020016000206005015411611543576040517f08c379a000000000000000000000000000000000000000000000000000000000815260040161153a90611fbf565b60405180910390fd5b81600260008573ffffffffffffffffffffffffffffffffffffffff1673ffffffffffffffffffffffffffffffffffffffff16815260200190815260200160002060040154116115c7576040517f08c379a00000000000000000000000000000000000000000000000000000000081526004016115be9061203f565b60405180910390fd5b81600260008573ffffffffffffffffffffffffffffffffffffffff1673ffffffffffffffffffffffffffffffffffffffff168152602001908152602001600020600401600082825461161991906121f8565b9250508190555081600160008282546116329190612117565b925050819055506001600260008573ffffffffffffffffffffffffffffffffffffffff1673ffffffffffffffffffffffffffffffffffffffff16815260200190815260200160002060030160006101000a81548160ff0219169083151502179055506000600260008573ffffffffffffffffffffffffffffffffffffffff1673ffffffffffffffffffffffffffffffffffffffff168152602001908152602001600020600501819055506000600260008573ffffffffffffffffffffffffffffffffffffffff1673ffffffffffffffffffffffffffffffffffffffff168152602001908152602001600020600601819055506000600260008573ffffffffffffffffffffffffffffffffffffffff1673ffffffffffffffffffffffffffffffffffffffff16815260200190815260200160002060070181905550505050565b6000818073ffffffffffffffffffffffffffffffffffffffff163373ffffffffffffffffffffffffffffffffffffffff16146117e2576040517f08c379a00000000000000000000000000000000000000000000000000000000081526004016117d99061205f565b60405180910390fd5b600073ffffffffffffffffffffffffffffffffffffffff16600260008573ffffffffffffffffffffffffffffffffffffffff1673ffffffffffffffffffffffffffffffffffffffff16815260200190815260200160002060000160009054906101000a900473ffffffffffffffffffffffffffffffffffffffff1673ffffffffffffffffffffffffffffffffffffffff16146118815760019150611886565b600091505b50919050565b6000828261189a91906121f8565b905092915050565b60006118ad8261048c565b905060006005826118be919061216d565b90506611c37937e08000816118d3919061219e565b600260008573ffffffffffffffffffffffffffffffffffffffff1673ffffffffffffffffffffffffffffffffffffffff16815260200190815260200160002060050181905550505050565b82805461192a906122c8565b90600052602060002090601f01602090048101928261194c5760008555611993565b82601f1061196557805160ff1916838001178555611993565b82800160010185558215611993579182015b82811115611992578251825591602001919060010190611977565b5b5090506119a091906119a4565b5090565b5b808211156119bd5760008160009055506001016119a5565b5090565b60006119d46119cf846120cb565b61209a565b9050828152602081018484840111156119ec57600080fd5b6119f7848285612286565b509392505050565b600081359050611a0e816123c7565b92915050565b600081359050611a23816123de565b92915050565b600081359050611a38816123f5565b92915050565b600082601f830112611a4f57600080fd5b8135611a5f8482602086016119c1565b91505092915050565b600081359050611a778161240c565b92915050565b600060208284031215611a8f57600080fd5b6000611a9d848285016119ff565b91505092915050565b60008060008060008060008060006101208a8c031215611ac557600080fd5b6000611ad38c828d01611a14565b99505060208a013567ffffffffffffffff811115611af057600080fd5b611afc8c828d01611a3e565b98505060408a013567ffffffffffffffff811115611b1957600080fd5b611b258c828d01611a3e565b9750506060611b368c828d01611a29565b9650506080611b478c828d01611a29565b95505060a0611b588c828d01611a68565b94505060c0611b698c828d01611a68565b93505060e0611b7a8c828d01611a68565b925050610100611b8c8c828d01611a68565b9150509295985092959850929598565b60008060408385031215611baf57600080fd5b6000611bbd858286016119ff565b9250506020611bce85828601611a68565b9150509250929050565b611be18161223e565b82525050565b611bf081612250565b82525050565b6000611c01826120fb565b611c0b8185612106565b9350611c1b818560208601612295565b611c24816123b6565b840191505092915050565b6000611c3c601e83612106565b91507f506c6561736520636865636b206f757420612062696b652066697273742e00006000830152602082019050919050565b6000611c7c602a83612106565b91507f596f7520646f206e6f74206861766520616e797468696e67206475652061742060008301527f746869732074696d652e000000000000000000000000000000000000000000006020830152604082019050919050565b6000611ce2601d83612106565b91507f596f752063616e6e6f742072656e7420617420746869732074696d652e0000006000830152602082019050919050565b6000611d22601b83612106565b91507f596f75206861766520612070656e64696e672062616c616e63652e00000000006000830152602082019050919050565b6000611d62602283612106565b91507f596f7520617265206e6f7420616c6c6f77656420746f2061636365737320746860008301527f69730000000000000000000000000000000000000000000000000000000000006020830152604082019050919050565b6000611dc8604583612106565b91507f596f7520646f206e6f74206861766520656e6f7567682066756e647320746f2060008301527f636f766572207061796d656e742e20506c65617365206d616b6520612064657060208301527f6f7369742e0000000000000000000000000000000000000000000000000000006040830152606082019050919050565b6000611e54602083612106565b91507f596f752063616e206f6e6c79206d616e61676520796f7572206163636f756e746000830152602082019050919050565b611e908161227c565b82525050565b600061012082019050611eac600083018c611bd8565b8181036020830152611ebe818b611bf6565b90508181036040830152611ed2818a611bf6565b9050611ee16060830189611be7565b611eee6080830188611be7565b611efb60a0830187611e87565b611f0860c0830186611e87565b611f1560e0830185611e87565b611f23610100830184611e87565b9a9950505050505050505050565b6000602082019050611f466000830184611be7565b92915050565b60006080820190508181036000830152611f668187611bf6565b90508181036020830152611f7a8186611bf6565b9050611f896040830185611be7565b611f966060830184611be7565b95945050505050565b60006020820190508181036000830152611fb881611c2f565b9050919050565b60006020820190508181036000830152611fd881611c6f565b9050919050565b60006020820190508181036000830152611ff881611cd5565b9050919050565b6000602082019050818103600083015261201881611d15565b9050919050565b6000602082019050818103600083015261203881611d55565b9050919050565b6000602082019050818103600083015261205881611dbb565b9050919050565b6000602082019050818103600083015261207881611e47565b9050919050565b60006020820190506120946000830184611e87565b92915050565b6000604051905081810181811067ffffffffffffffff821117156120c1576120c0612387565b5b8060405250919050565b600067ffffffffffffffff8211156120e6576120e5612387565b5b601f19601f8301169050602081019050919050565b600081519050919050565b600082825260208201905092915050565b60006121228261227c565b915061212d8361227c565b9250827fffffffffffffffffffffffffffffffffffffffffffffffffffffffffffffffff03821115612162576121616122fa565b5b828201905092915050565b60006121788261227c565b91506121838361227c565b92508261219357612192612329565b5b828204905092915050565b60006121a98261227c565b91506121b48361227c565b9250817fffffffffffffffffffffffffffffffffffffffffffffffffffffffffffffffff04831182151516156121ed576121ec6122fa565b5b828202905092915050565b60006122038261227c565b915061220e8361227c565b925082821015612221576122206122fa565b5b828203905092915050565b60006122378261225c565b9050919050565b60006122498261225c565b9050919050565b60008115159050919050565b600073ffffffffffffffffffffffffffffffffffffffff82169050919050565b6000819050919050565b82818337600083830152505050565b60005b838110156122b3578082015181840152602081019050612298565b838111156122c2576000848401525b50505050565b600060028204905060018216806122e057607f821691505b602082108114156122f4576122f3612358565b5b50919050565b7f4e487b7100000000000000000000000000000000000000000000000000000000600052601160045260246000fd5b7f4e487b7100000000000000000000000000000000000000000000000000000000600052601260045260246000fd5b7f4e487b7100000000000000000000000000000000000000000000000000000000600052602260045260246000fd5b7f4e487b7100000000000000000000000000000000000000000000000000000000600052604160045260246000fd5b6000601f19601f8301169050919050565b6123d08161222c565b81146123db57600080fd5b50565b6123e78161223e565b81146123f257600080fd5b50565b6123fe81612250565b811461240957600080fd5b50565b6124158161227c565b811461242057600080fd5b5056fea2646970667358221220722cf560b6761cfe5d14e5d58f7fdfa03226d694610c265f59719ffee548d10b64736f6c63430008000033",
  "linkReferences": {},
  "deployedLinkReferences": {}
}